:100000000EC028C027C026C025C024C023C022C0DF
:1000100021C020C01FC01EC01DC01CC01BC0112499
:100020001FBECFE5D2E0DEBFCDBF20E0A4E6B0E04A
:1000300001C01D92AC37B207E1F710E0A0E6B0E0D6
:10004000E4EEFAE002C005900D92A436B107D9F7AC
:1000500007D246C5D5CFC09A00C000C0C098089549
:100060008111F9CFC09A00C0C0980895EF92FF9215
:100070000F931F93CF93DF93C4E6D0E002E810E024
:1000800087E0E82EF12C8A8190E00E2C02C0959535
:1000900087950A94E2F780FF35C0DDDF81E0E81A3A
:1000A000F10888F727E0E22EF12C888190E00E2CF1
:1000B00002C0959587950A94E2F780FF26C0CBDFB2
:1000C00081E0E81AF10888F797E0E92EF12C8C819D
:1000D00090E00E2C02C0959587950A94E2F780FF78
:1000E00017C0B9DF81E0E81AF10888F726960C17E7
:1000F0001D0709F0C5CFDF91CF911F910F91FF90A0
:10010000EF90089580E0ACDFC9CF80E0A9DFD8CFC1
:1001100080E0A6DFE7CFB82FA62FC90166E070E028
:10012000E1D1FC01EC59FF4FB083A283C90166E025
:1001300070E0D8D1FC01EC59FF4F44830895CF9370
:10014000DF9300D000D000D0CDB7DEB7B52FA72FFA
:10015000492FC90166E070E0C5D1FC01EC59FF4FA1
:10016000B083A283C90166E070E0BCD1FC01EC5908
:10017000FF4F448326960FB6F894DEBF0FBECDBF67
:10018000DF91CF9108952F923F924F925F926F929D
:100190007F928F929F92AF92BF92CF92DF92EF9217
:1001A000FF920F931F93CF93DF93CDB7DEB72F97B7
:1001B0000FB6F894DEBF0FBECDBF562E142F6111BF
:1001C00024C04A834C834E8329813A814B815C81D0
:1001D0006D817E8180E090E02F960FB6F894DEBFAF
:1001E0000FBECDBFDF91CF911F910F91FF90EF9088
:1001F000DF90CF90BF90AF909F908F907F906F9047
:100200005F904F903F902F900895282F30E050E05E
:1002100040E02F83388749875A87CA01B90198D2AD
:1002200020E030E040E752E46F83788789879A873F
:100230006F81788589859A85F2D16F8378878987E0
:100240009A876F81788589859A8551D26B017C0167
:1002500081D29B01AC016F81788589859A857AD19D
:10026000062FB72EA82E9B87812F90E0B0E0A0E04C
:100270008F839887A987BA87BC01CD016BD23B01D8
:100280004C01252D30E050E040E02F83388749872E
:100290005A87CA01B9015ED21B012C01202F3B2DC8
:1002A0004A2D5B856F83388689875A866F8178856A
:1002B00089859A85DBD29B01AC0160E070E080E823
:1002C0009FE348D19301A4016F83788789879A8738
:1002D0006F81788589859A85C9D26C877D878E875D
:1002E0009F87202F3B2D4A2D5B8560E070E080E8E2
:1002F0009FE330D19101A2016F83788789879A8724
:100300006F81788589859A85B1D29B01AC0160E0C7
:1003100070E080E89FE31ED19301A4016F8378878A
:1003200089879A876F81788589859A859FD25B01B5
:10033000082F9B879101A20160E070E080E89FE3B5
:1003400009D19301A4016F83788789879A876F8188
:10035000788589859A858AD26F83788789879A87F5
:100360006F81788589859A85C7D1962E32E0C3162C
:10037000D104E104F10409F451C0CCF4C114D10456
:10038000E104F10469F1CA94CD28CE28CF28A9F15F
:100390003C853F834D8548875E8559878F858A8751
:1003A0006F81788589859A85A7D1862F45C083E09E
:1003B000C816D104E104F10409F442C094E0C9165E
:1003C000D104E104F10421F7AF82B88609872B85B7
:1003D0002A876F81788589859A858ED1812F1CC067
:1003E000AF82B8860987AB85AA876F8178858985B2
:1003F0009A8582D1892D962E1FC0BC85BF832D85FD
:1004000028873E8539874F854A876F81788589851A
:100410009A8572D1892D912E162F0EC0AF82B88683
:1004200009875B855A876F81788589859A8564D12C
:10043000862F912F192D992E1A839C828E83C4CEDC
:100440008C858F839D859887AE85A987BF85BA8760
:100450006F81788589859A854FD1812F192DCBCFD2
:10046000B89A8FEB9DE50197F1F700C00000C4E654
:10047000D0E0D0D2BE0147D08093640010926600D5
:1004800010926800C7D210926A00BE013CD08093DF
:100490006C0010926E00BED210927000109272002A
:1004A000BE0131D080937400B5D28C01B3D27C01EF
:1004B000B1D2BE0128D080937600C701BE0123D0FF
:1004C00080937800C801BE011ED080937A00CEDDF3
:1004D0009FEF2BED85E0915020408040E1F700C078
:1004E0000000C7CF0024552704C0080E591F880FED
:1004F000991F009729F076956795B8F37105B9F7BC
:10050000802D952F089597FB072E16F4009406D0A2
:1005100077FD08D00BD007FC05D03EF4909581956F
:100520009F4F0895709561957F4F0895AA1BBB1B3F
:1005300051E107C0AA1FBB1FA617B70710F0A61BE3
:10054000B70B881F991F5A95A9F780959095BC0104
:10055000CD0108955058BB27AA270ED04DC13ED1DA
:1005600030F043D120F031F49F3F11F41EF433C139
:100570000EF4E095E7FB29C1E92F4FD180F3BA17BC
:10058000620773078407950718F071F49EF567C139
:100590000EF4E0950B2EBA2FA02D0B01B90190019E
:1005A0000C01CA01A0011124FF27591B99F0593FE2
:1005B00050F4503E68F11A16F040A22F232F342F2A
:1005C0004427585FF3CF469537952795A795F04078
:1005D0005395C9F77EF41F16BA0B620B730B840B8D
:1005E000BAF09150A1F0FF0FBB1F661F771F881F45
:1005F000C2F70EC0BA0F621F731F841F48F487959D
:1006000077956795B795F7959E3F08F0B3CF93958B
:10061000880F08F09927EE0F9795879508950CD0CD
:10062000EBC0E3D040F0DAD030F021F45F3F19F0B6
:10063000CCC0511115C1CFC0F0D098F39923C9F3A4
:100640005523B1F3951B550BBB27AA2762177307D8
:10065000840738F09F5F5F4F220F331F441FAA1F8C
:10066000A9F333D00E2E3AF0E0E830D0915050404C
:10067000E695001CCAF729D0FE2F27D0660F771FFA
:10068000881FBB1F261737074807AB07B0E809F0DC
:10069000BB0B802DBF01FF2793585F4F2AF09E3F71
:1006A000510568F092C0DCC05F3FECF3983EDCF38C
:1006B000869577956795B795F7959F5FC9F7880FEA
:1006C000911D9695879597F90895E1E0660F771F3C
:1006D000881FBB1F621773078407BA0720F0621BCD
:1006E000730B840BBA0BEE1F88F7E095089504D0C6
:1006F0006894B111B5C0089598D088F09F5790F0D4
:10070000B92F9927B751A0F0D1F0660F771F881F36
:10071000991F1AF0BA95C9F712C0B13081F09FD075
:10072000B1E008959CC0672F782F8827B85F39F013
:10073000B93FCCF3869577956795B395D9F73EF495
:1007400090958095709561957F4F8F4F9F4F08953D
:10075000E89409C097FB3EF490958095709561955B
:100760007F4F8F4F9F4F9923A9F0F92F96E9BB2711
:100770009395F695879577956795B795F111F8CF8D
:10078000FAF4BB0F11F460FF1BC06F5F7F4F8F4FF8
:100790009F4F16C0882311F096E911C0772321F0EE
:1007A0009EE8872F762F05C0662371F096E8862F86
:1007B00070E060E02AF09A95660F771F881FDAF7DD
:1007C000880F9695879597F9089597F99F6780E820
:1007D00070E060E008959FEF80EC089500240A9493
:1007E0001616170618060906089500240A9412160C
:1007F0001306140605060895092E0394000C11F43F
:10080000882352F0BB0F40F4BF2B11F460FF04C0EB
:100810006F5F7F4F8F4F9F4F089557FD9058440F44
:10082000551F59F05F3F71F04795880F97FB991F4F
:1008300061F09F3F79F0879508951216130614060C
:10084000551FF2CF4695F1DF08C016161706180699
:10085000991FF1CF86957105610508940895E89474
:10086000BB2766277727CB0197F908950AD0C4CF15
:10087000B5DF28F0BADF18F0952309F0A6CFABCF8B
:10088000EFCFCBDFA8F39923D9F35523C9F3950F05
:1008900050E0551FAA27EE27FF27BB270024089406
:1008A000679520F4E20FF31FB41F0A1E220F331FB7
:1008B000441FAA1F6695A9F7779530F4F30FB41F6C
:1008C0000A1E121E08F46395330F441FAA1F221F2D
:1008D000769599F7879520F4B40F0A1E121E631FB0
:1008E000440FAA1F221F331F8695A9F7862F712D4B
:1008F000602D11249F5750408AF0E1F088234AF080
:10090000EE0FFF1FBB1F661F771F881F91505040BF
:10091000A9F79E3F510570F058CFA2CF5F3FECF38F
:10092000983EDCF3869577956795B795F795E795AB
:100930009F5FC1F7FE2B880F911D9695879597F9BC
:100940000895CF92DF92EF92FF92CF93DF93CDB7CE
:10095000DEB72A970FB6F894DEBF0FBECDBF8987EA
:100960009A87A985BA858D919D910D90BC91A02DF6
:1009700089839A83AB83BC83892B8A2B8B2B41F48D
:1009800084E299EDABE5B7E089839A83AB83BC83BE
:1009900069817A818B819C812DE133EF41E050E0C8
:1009A00061D02D833E834F83588769837A838B83FD
:1009B0009C8327EA31E440E050E03BD06B017C01AE
:1009C0002CEE34EF4FEF5FEF6D817E818F81988544
:1009D00030D0DC01CB018C0D9D1DAE1DBF1DB7FFBE
:1009E00003C00197A109B048E985FA858083918306
:1009F000A283B3839F772A960FB6F894DEBF0FBE0B
:100A0000CDBFDF91CF91FF90EF90DF90CF90089511
:100A100098DF089580E690E094DF0895B0E0A0E0CC
:100A20008093600090936100A0936200B093630094
:100A30000895EE27FF27AA27BB2708C0A20FB31FE0
:100A4000E41FF51F220F331F441F551F96958795EE
:100A50007795679598F37040A9F7009799F7BD01CE
:100A6000CF010895052E97FB16F400940FD057FD83
:100A700005D014D007FC02D046F408C0509540952C
:100A8000309521953F4F4F4F5F4F0895909580953A
:100A9000709561957F4F8F4F9F4F0895A1E21A2E59
:100AA000AA1BBB1BFD010DC0AA1FBB1FEE1FFF1F12
:100AB000A217B307E407F50720F0A21BB30BE40B62
:100AC000F50B661F771F881F991F1A9469F76095A9
:100AD0007095809590959B01AC01BD01CF01089563
:040AE000F894FFCFB8
:040AE400010000000D
:00000001FF
