:1000000009C021C020C01FC01EC01DC01CC01BC015
:100010001AC019C011241FBECFE9CDBF20E0A4E64D
:10002000B0E001C01D92A037B207E1F710E0A0E6F2
:10003000B0E0EEEBF3E002C005900D92A436B107FC
:10004000D9F77AD0BAC1DCCFC09A00C000C0C0983E
:100050000895892B09F0F8CFC09A00C0C098089580
:10006000EF92FF920F931F93CF93DF93C4E6D0E0FC
:1000700003E710E087E0E82EF12C898190E00E2C58
:1000800002C0959587950A94E2F780FF35C0DCDFC2
:1000900081E0E81AF10888F727E0E22EF12C888148
:1000A00090E00E2C02C0959587950A94E2F780FFA8
:1000B00027C0CADF81E0E81AF10888F797E0E92E47
:1000C000F12C8A8190E00E2C02C0959587950A94B8
:1000D000E2F780FF19C0B8DF81E0E81AF10888F77D
:1000E00023960C171D0709F0C5CFDF91CF911F9103
:1000F0000F91FF90EF90089590E080E0AADFC8CFC5
:1001000090E080E0A6DFD6CF90E080E0A2DFE4CFF1
:10011000B82FA62FC90163E070E050D0FC01EC5964
:10012000FF4FB083A183C90163E070E047D0FC01B9
:10013000EC59FF4F42830895B89A8FEB9DE50197E4
:10014000F1F700C00000C4E6D0E0D1D0BE0147D036
:10015000809364001092650010926600C8D01092DF
:100160006700BE013CD08093680010926900BFD048
:1001700010926A0010926B00BE0131D080936C0027
:10018000B6D08C01B4D07C01B2D0BE0128D080930F
:100190006D00C701BE0123D080936E00C801BE016F
:1001A0001ED080936F005CDF9FEF2BED85E09150B8
:1001B00020408040E1F700C00000C7CF0024552751
:1001C00004C0080E591F880F991F009729F07695D3
:1001D0006795B8F37105B9F7802D952F089597FBB2
:1001E000072E16F4009406D077FD08D00BD007FC3C
:1001F00005D03EF4909581959F4F08957095619537
:100200007F4F0895AA1BBB1B51E107C0AA1FBB1F4C
:10021000A617B70710F0A61BB70B881F991F5A9592
:10022000A9F780959095BC01CD010895CF92DF92FA
:10023000EF92FF92CF93DF93CDB7DD27CA50CDBFAA
:1002400089879A87A985BA858D919D910D90BC91DA
:10025000A02D89839A83AB83BC83892B8A2B8B2B1C
:1002600041F484E299EDABE5B7E089839A83AB83EF
:10027000BC8369817A818B819C812DE133EF41E0E0
:1002800050E05DD02D833E834F83588769837A8306
:100290008B839C8327EA31E440E050E037D06B0148
:1002A0007C012CEE34EF4FEF5FEF6D817E818F810B
:1002B00098852CD0DC01CB018C0D9D1DAE1DBF1D82
:1002C000B7FF03C00197A109B048E985FA8580838B
:1002D0009183A283B3839F77C65FCDBFDF91CF9118
:1002E000FF90EF90DF90CF900895A0DF089580E613
:1002F00090E09CDF0895B0E0A0E0809360009093D0
:100300006100A0936200B09363000895EE27FF2779
:10031000AA27BB2708C0A20FB31FE41FF51F220F97
:10032000331F441F551F969587957795679598F3CA
:100330007040A9F7009799F7BD01CF010895052EE8
:1003400097FB16F400940FD057FD05D014D007FC8E
:1003500002D046F408C050954095309521953F4F06
:100360004F4F5F4F089590958095709561957F4FA1
:100370008F4F9F4F0895A1E21A2EAA1BBB1BFD01B0
:100380000DC0AA1FBB1FEE1FFF1FA217B307E40774
:10039000F50720F0A21BB30BE40BF50B661F771FCC
:1003A000881F991F1A9469F76095709580959095AC
:0E03B0009B01AC01BD01CF010895F894FFCF71
:0403BE00010000003A
:00000001FF
