:1000000020E0A0E6B0E001C01D92AC36B207E1F7F7
:10001000C098882341F082E08A95F1F70000C098EB
:1000200000C000C0089500C000C0C09882E08A955A
:10003000F1F700000895EF92FF920F931F93CF9373
:10004000DF93D0E0C0E001E010E087E0E82EF12C83
:10005000CE0163E070E093D0FC01E05AFF4F2181B4
:10006000822F90E098010E2C02C0220F331F0A94B9
:10007000E2F72823392381E0232B09F480E0C8DF4D
:1000800081E0E81AF10820F727E0E22EF12CCE01FA
:1000900063E070E074D0FC01E05AFF4F2081822FB2
:1000A00090E098010E2C02C0220F331F0A94E2F751
:1000B0002823392381E0232B09F480E0A9DF81E0A4
:1000C000E81AF10820F797E0E92EF12CCE0163E061
:1000D00070E055D0FC01E05AFF4F2281822F90E062
:1000E00098010E2C02C0220F331F0A94E2F7282336
:1000F000392381E0232B09F480E08ADF81E0E81ACC
:10010000F10820F72196C530D10509F09ECFDF9187
:10011000CF911F910F91FF90EF900895B82FA62FC8
:10012000C90163E070E02BD0FC01E05AFF4FB083BF
:10013000A183C90163E070E022D0FC01E05AFF4FC7
:1001400042830895B89AE0E6F0E08FEF838314824B
:10015000158216828783108611861286838784878C
:100160008587868768DF2FEF84E39CE021508040FD
:100170009040E1F700C0000090E080E00895002486
:10018000552704C0080E591F880F991F009729F0A2
:1001900076956795B8F37105B9F7802D952F089579
:00000001FF
